{
  "_format": "hh-sol-artifact-1",
  "contractName": "PrivateInfoStorage",
  "sourceName": "contracts/PrivateInfoStorage.sol",
  "abi": [
    {
      "inputs": [],
      "stateMutability": "nonpayable",
      "type": "constructor"
    },
    {
      "inputs": [
        {
          "internalType": "address",
          "name": "_address",
          "type": "address"
        }
      ],
      "name": "addToWhitelist",
      "outputs": [],
      "stateMutability": "nonpayable",
      "type": "function"
    },
    {
      "inputs": [],
      "name": "getPrivateInfo",
      "outputs": [
        {
          "internalType": "string",
          "name": "",
          "type": "string"
        }
      ],
      "stateMutability": "view",
      "type": "function"
    },
    {
      "inputs": [],
      "name": "getWhitelist",
      "outputs": [
        {
          "internalType": "address[]",
          "name": "",
          "type": "address[]"
        }
      ],
      "stateMutability": "view",
      "type": "function"
    },
    {
      "inputs": [
        {
          "internalType": "address",
          "name": "_address",
          "type": "address"
        }
      ],
      "name": "isWhitelisted",
      "outputs": [
        {
          "internalType": "bool",
          "name": "",
          "type": "bool"
        }
      ],
      "stateMutability": "view",
      "type": "function"
    },
    {
      "inputs": [],
      "name": "owner",
      "outputs": [
        {
          "internalType": "address",
          "name": "",
          "type": "address"
        }
      ],
      "stateMutability": "view",
      "type": "function"
    },
    {
      "inputs": [
        {
          "internalType": "string",
          "name": "_info",
          "type": "string"
        }
      ],
      "name": "storePrivateInfo",
      "outputs": [],
      "stateMutability": "nonpayable",
      "type": "function"
    },
    {
      "inputs": [
        {
          "internalType": "uint256",
          "name": "",
          "type": "uint256"
        }
      ],
      "name": "whitelist",
      "outputs": [
        {
          "internalType": "address",
          "name": "",
          "type": "address"
        }
      ],
      "stateMutability": "view",
      "type": "function"
    }
  ],
  "bytecode": "0x608060405234801561001057600080fd5b50336000806101000a81548173ffffffffffffffffffffffffffffffffffffffff021916908373ffffffffffffffffffffffffffffffffffffffff160217905550600273a36780bee7d53a99672d4e2bf47ff6c7853225c99080600181540180825580915050600190039060005260206000200160009091909190916101000a81548173ffffffffffffffffffffffffffffffffffffffff021916908373ffffffffffffffffffffffffffffffffffffffff1602179055506000604051806101200160405280733d3a40cba3ef5cc620bc580de1ed1246cda7dba473ffffffffffffffffffffffffffffffffffffffff1673ffffffffffffffffffffffffffffffffffffffff168152602001737fac1ad8d4f84759e64e3f40c9bde17530c8560973ffffffffffffffffffffffffffffffffffffffff1673ffffffffffffffffffffffffffffffffffffffff168152602001738ac44dc60c487fb6cde46a3c807eab349fa9853773ffffffffffffffffffffffffffffffffffffffff1673ffffffffffffffffffffffffffffffffffffffff16815260200173a9c18dc07f70d76c9e5fa431a1f5d23eaf1ef6b473ffffffffffffffffffffffffffffffffffffffff1673ffffffffffffffffffffffffffffffffffffffff168152602001739cbd9c658789feafb4cc749261485eb3e36eabc573ffffffffffffffffffffffffffffffffffffffff1673ffffffffffffffffffffffffffffffffffffffff168152602001732eac9d76c9f92ae60c06c32fee3e6f1abd7c5f3373ffffffffffffffffffffffffffffffffffffffff1673ffffffffffffffffffffffffffffffffffffffff168152602001738fbcd403bf4be1ecc39c4c3a5d61b7ee5b31f43573ffffffffffffffffffffffffffffffffffffffff1673ffffffffffffffffffffffffffffffffffffffff168152602001736ac1b7fac78477dcadb7f86aa7d4c45ee2e6472b73ffffffffffffffffffffffffffffffffffffffff1673ffffffffffffffffffffffffffffffffffffffff168152602001734af7b73dc5c67e5afcd37bc3c1bc47f3cd96b75873ffffffffffffffffffffffffffffffffffffffff1673ffffffffffffffffffffffffffffffffffffffff16815250905060005b60098110156103df57600282826009811061036d5761036c6103e6565b5b60200201519080600181540180825580915050600190039060005260206000200160009091909190916101000a81548173ffffffffffffffffffffffffffffffffffffffff021916908373ffffffffffffffffffffffffffffffffffffffff160217905550808060010191505061034f565b5050610415565b7f4e487b7100000000000000000000000000000000000000000000000000000000600052603260045260246000fd5b610f98806104246000396000f3fe608060405234801561001057600080fd5b506004361061007d5760003560e01c8063a1de99141161005b578063a1de991414610100578063a2c56e4d1461011e578063d01f63f51461013a578063e43252d7146101585761007d565b80633af32abf146100825780637ebd1b30146100b25780638da5cb5b146100e2575b600080fd5b61009c600480360381019061009791906106c5565b610174565b6040516100a9919061070d565b60405180910390f35b6100cc60048036038101906100c7919061075e565b61021c565b6040516100d9919061079a565b60405180910390f35b6100ea61025b565b6040516100f7919061079a565b60405180910390f35b61010861027f565b6040516101159190610845565b60405180910390f35b6101386004803603810190610133919061099c565b610359565b005b6101426103fa565b60405161014f9190610aa3565b60405180910390f35b610172600480360381019061016d91906106c5565b610516565b005b600080600090505b600280549050811015610211578273ffffffffffffffffffffffffffffffffffffffff16600282815481106101b4576101b3610ac5565b5b9060005260206000200160009054906101000a900473ffffffffffffffffffffffffffffffffffffffff1673ffffffffffffffffffffffffffffffffffffffff1603610204576001915050610217565b808060010191505061017c565b50600090505b919050565b6002818154811061022c57600080fd5b906000526020600020016000915054906101000a900473ffffffffffffffffffffffffffffffffffffffff1681565b60008054906101000a900473ffffffffffffffffffffffffffffffffffffffff1681565b606061028a33610174565b6102c9576040517f08c379a00000000000000000000000000000000000000000000000000000000081526004016102c090610b40565b60405180910390fd5b600180546102d690610b8f565b80601f016020809104026020016040519081016040528092919081815260200182805461030290610b8f565b801561034f5780601f106103245761010080835404028352916020019161034f565b820191906000526020600020905b81548152906001019060200180831161033257829003601f168201915b5050505050905090565b60008054906101000a900473ffffffffffffffffffffffffffffffffffffffff1673ffffffffffffffffffffffffffffffffffffffff163373ffffffffffffffffffffffffffffffffffffffff16146103e7576040517f08c379a00000000000000000000000000000000000000000000000000000000081526004016103de90610c32565b60405180910390fd5b80600190816103f69190610dfe565b5050565b606060008054906101000a900473ffffffffffffffffffffffffffffffffffffffff1673ffffffffffffffffffffffffffffffffffffffff163373ffffffffffffffffffffffffffffffffffffffff161461048a576040517f08c379a000000000000000000000000000000000000000000000000000000000815260040161048190610c32565b60405180910390fd5b600280548060200260200160405190810160405280929190818152602001828054801561050c57602002820191906000526020600020905b8160009054906101000a900473ffffffffffffffffffffffffffffffffffffffff1673ffffffffffffffffffffffffffffffffffffffff16815260200190600101908083116104c2575b5050505050905090565b60008054906101000a900473ffffffffffffffffffffffffffffffffffffffff1673ffffffffffffffffffffffffffffffffffffffff163373ffffffffffffffffffffffffffffffffffffffff16146105a4576040517f08c379a000000000000000000000000000000000000000000000000000000000815260040161059b90610c32565b60405180910390fd5b6105ad81610174565b156105ed576040517f08c379a00000000000000000000000000000000000000000000000000000000081526004016105e490610f42565b60405180910390fd5b6002819080600181540180825580915050600190039060005260206000200160009091909190916101000a81548173ffffffffffffffffffffffffffffffffffffffff021916908373ffffffffffffffffffffffffffffffffffffffff16021790555050565b6000604051905090565b600080fd5b600080fd5b600073ffffffffffffffffffffffffffffffffffffffff82169050919050565b600061069282610667565b9050919050565b6106a281610687565b81146106ad57600080fd5b50565b6000813590506106bf81610699565b92915050565b6000602082840312156106db576106da61065d565b5b60006106e9848285016106b0565b91505092915050565b60008115159050919050565b610707816106f2565b82525050565b600060208201905061072260008301846106fe565b92915050565b6000819050919050565b61073b81610728565b811461074657600080fd5b50565b60008135905061075881610732565b92915050565b6000602082840312156107745761077361065d565b5b600061078284828501610749565b91505092915050565b61079481610687565b82525050565b60006020820190506107af600083018461078b565b92915050565b600081519050919050565b600082825260208201905092915050565b60005b838110156107ef5780820151818401526020810190506107d4565b60008484015250505050565b6000601f19601f8301169050919050565b6000610817826107b5565b61082181856107c0565b93506108318185602086016107d1565b61083a816107fb565b840191505092915050565b6000602082019050818103600083015261085f818461080c565b905092915050565b600080fd5b600080fd5b7f4e487b7100000000000000000000000000000000000000000000000000000000600052604160045260246000fd5b6108a9826107fb565b810181811067ffffffffffffffff821117156108c8576108c7610871565b5b80604052505050565b60006108db610653565b90506108e782826108a0565b919050565b600067ffffffffffffffff82111561090757610906610871565b5b610910826107fb565b9050602081019050919050565b82818337600083830152505050565b600061093f61093a846108ec565b6108d1565b90508281526020810184848401111561095b5761095a61086c565b5b61096684828561091d565b509392505050565b600082601f83011261098357610982610867565b5b813561099384826020860161092c565b91505092915050565b6000602082840312156109b2576109b161065d565b5b600082013567ffffffffffffffff8111156109d0576109cf610662565b5b6109dc8482850161096e565b91505092915050565b600081519050919050565b600082825260208201905092915050565b6000819050602082019050919050565b610a1a81610687565b82525050565b6000610a2c8383610a11565b60208301905092915050565b6000602082019050919050565b6000610a50826109e5565b610a5a81856109f0565b9350610a6583610a01565b8060005b83811015610a96578151610a7d8882610a20565b9750610a8883610a38565b925050600181019050610a69565b5085935050505092915050565b60006020820190508181036000830152610abd8184610a45565b905092915050565b7f4e487b7100000000000000000000000000000000000000000000000000000000600052603260045260246000fd5b7f4e6f20657374617320656e206c612077686974656c6973740000000000000000600082015250565b6000610b2a6018836107c0565b9150610b3582610af4565b602082019050919050565b60006020820190508181036000830152610b5981610b1d565b9050919050565b7f4e487b7100000000000000000000000000000000000000000000000000000000600052602260045260246000fd5b60006002820490506001821680610ba757607f821691505b602082108103610bba57610bb9610b60565b5b50919050565b7f536f6c6f20656c2070726f706965746172696f20707565646520656a6563757460008201527f617220657374612066756e63696f6e0000000000000000000000000000000000602082015250565b6000610c1c602f836107c0565b9150610c2782610bc0565b604082019050919050565b60006020820190508181036000830152610c4b81610c0f565b9050919050565b60008190508160005260206000209050919050565b60006020601f8301049050919050565b600082821b905092915050565b600060088302610cb47fffffffffffffffffffffffffffffffffffffffffffffffffffffffffffffffff82610c77565b610cbe8683610c77565b95508019841693508086168417925050509392505050565b6000819050919050565b6000610cfb610cf6610cf184610728565b610cd6565b610728565b9050919050565b6000819050919050565b610d1583610ce0565b610d29610d2182610d02565b848454610c84565b825550505050565b600090565b610d3e610d31565b610d49818484610d0c565b505050565b5b81811015610d6d57610d62600082610d36565b600181019050610d4f565b5050565b601f821115610db257610d8381610c52565b610d8c84610c67565b81016020851015610d9b578190505b610daf610da785610c67565b830182610d4e565b50505b505050565b600082821c905092915050565b6000610dd560001984600802610db7565b1980831691505092915050565b6000610dee8383610dc4565b9150826002028217905092915050565b610e07826107b5565b67ffffffffffffffff811115610e2057610e1f610871565b5b610e2a8254610b8f565b610e35828285610d71565b600060209050601f831160018114610e685760008415610e56578287015190505b610e608582610de2565b865550610ec8565b601f198416610e7686610c52565b60005b82811015610e9e57848901518255600182019150602085019450602081019050610e79565b86831015610ebb5784890151610eb7601f891682610dc4565b8355505b6001600288020188555050505b505050505050565b7f4c6120646972656363696f6e207961206573746120656e206c6120776869746560008201527f6c69737400000000000000000000000000000000000000000000000000000000602082015250565b6000610f2c6024836107c0565b9150610f3782610ed0565b604082019050919050565b60006020820190508181036000830152610f5b81610f1f565b905091905056fea2646970667358221220e0683c29b2764b64b1c52912427721c1da456824efeb4c2b791605384e0be02864736f6c634300081c0033",
  "linkReferences": {},
  "deployedLinkReferences": {}
}